:020000040800F2
:100000000020001049330308B133030875D50008F8
:10001000B1330308B1330308B13303080000000013
:10002000000000000000000000000000B1330308E1
:10003000B133030800000000B1330308892A000827
:10004000B1330308B1330308B1330308B1330308F4
:10005000B1330308B1330308693C0008953D00083B
:10006000593D00081D3D0008E13C0008459B000883
:10007000359B0008259B0008159B0008059B000880
:10008000F19A0008DD9A0008B1330308B133030880
:10009000B1330308B1330308B1330308A53C0008AA
:1000A000B1180008BD1B0008E5170008391D00083D
:1000B000011B0008451A00087D190008B133030828
:1000C000B1330308B1330308B1330308B133030874
:1000D000B1330308C12B0008452B0008C92A0008CA
:1000E0002D3C0008B1330308B1330308B1330308D2
:1000F000B1330308B1330308B1330308B133030844
:10010000000000000000000000000000B133030800
:10011000B1330308B1330308A1ED01088DED0108E7
:10012000C99A0008B59A0008A19A00088D9A00089B
:10013000799A0008B13303080000000000000000B5
:10014000B1330308B1330308B133030800000000E2
:10015000000000000000000000000000000000009F
:100160000000000000000000B1330308B1330308B1
:10017000B133030800000000000000000000000090
:0801800000000000B133030888
:10018800436A8269D154436A0169C26B01338B4265
:1001980028BF002343623AB370B4EFF311835022AF
:1001A80082F31288C66B3268D20704D5DBB283F3B8
:1001B800118870BC7047716869B9D0E909429442E6
:1001C80018D085691544F56018D9A21A726084623E
:1001D800002280F85820326842F00102DBB2326017
:1001E80083F3118870BC7047426D136843F0800335
:1001F80013607047012280F85820D7E70469A21AD3
:1002080072608162E4E700BF034610B4846BD9686A
:10021800406954B19A6C8C1A013A005D5DF8044B40
:1002280008BF0A46C0B29A6470471A6A805C0132F5
:100238008A4228BF2246C0B21A625DF8044B704752
:10024800C36B13B190F858007047D0E90903181A26
:10025800B0FA80F040097047D0E909120369914269
:1002680038BFC9188A1AC16B013B19B149680A44D9
:100278009A4201D2981A704700207047836B43B1A5
:10028800826C5B689A4291BF981AC0689B1AC01822
:100298007047D0E907239A422FBFD01AC068801848
:1002A800C01A70470A4B30B503F1140493F90020C3
:1002B8005D78072AC8BF143A811804330D7313F800
:1002C800025C855413F8012C0A769C42EED130BDAD
:1002D800D837030803682DE9F0415D6A1DB12B4644
:1002E800BDE8F0411847002A174611DD04460E46BE
:1002F8000F4400E023689B68204698470028F9D0FF
:10030800236816F8011B1B6820469847BE42F1D1A6
:10031800BDE8F08103681B69184700BF002323224A
:10032800027043708370C370704700BF437A5A1CD1
:100338000344D2B242729972037A93420AD84AB1FC
:1003480010B5044604F10A01D0E9003098470023AB
:10035800637210BD7047CB0702D4024B024ADA60C1
:10036800704700BF00ED00E00400FA0520B10078F6
:10037800B0FA80F04009704701207047037903F014
:100388001803082B0AD002D82BB100207047102B75
:1003980016D0182BF9D1B0F80B007047114BB0F8F4
:1003A8000B0093F90030591C06BF0F4B1B78DBB2CA
:1003B800C3EB0312C3EB820300EB430080B2704728
:1003C800084BB0F80B0093F901305A1C06BF064BD6
:1003D8005B78DBB203EB430203EB820300EB4300E1
:1003E80080B2704700000020E4140020F0B50679C0
:1003F80006F06003402B09D144794FF0FF35002304
:10040800012006F00706A3420BD1F0BD602B08BF00
:1004180045794FF001040CBF04FA05F54FF0FF359C
:10042800EDE7042E0CD8DFE806F0030D18242E00A3
:1004380030B1C85CD75C784028420CBF012000204E
:100448000133E0E70028FBD0C856D756A0EB070CCD
:10045800DCF1000040EB0C00F2E70028F0D031F8A6
:10046800130032F81370784028420CBF0120002096
:10047800E6E70028E4D031F9130032F91370C71BFE
:1004880078427841DCE70028DAD051F8230052F8A6
:100498002370784028420CBF01200020D0E745E7B0
:1004A80090ED057A90ED004AD0ED066AD0ED014A4C
:1004B800D0ED047A90ED035AD0ED025AA4EE007AFA
:1004C800B0EE406AB0EE470AB0EE667AA4EE867ADD
:1004D80067EEC07AA5EE407AE5EE867A80ED057A79
:1004E800C0ED067A704700BFD0ED057A90ED013A6D
:1004F800D0ED003AD0ED064A90ED024A90ED077A29
:1005080090ED035A90ED086AD0ED045AC0ED067AD2
:10051800F0EE406A27EE830AC0ED056AA3EEA60A4C
:1005280080ED087AA4EE240AA5EE470AA5EEC60ACD
:1005380080ED070A704700BFD0ED007A90ED017A90
:1005480030EE670AE7EE007AB0EE670AC0ED007A8F
:10055800704700BF704700BF0378202B024600F1A8
:100568000100F9D0092BF7D02D2B00F0A4802B2BFC
:1005780003BF5378B7EE000A0246B7EE000AA3F1AC
:100588003001C8B209289FED577A10D8F2EE046AF4
:1005980007EE901AF8EEE77A12F8013FE7EE267AAE
:1005A800A3F13001C8B20928B0EE677AF0D92E2B32
:1005B80063D003F0DF03452B02D020EE070A704713
:1005C80010B451782D294FD02B2979D0A1F13003BF
:1005D800092B02F101027AD80024002303EB8303DC
:1005E80001EB430312F8011FA1F130000928A3F120
:1005F8003003F3D9B3F59A7F1A4628BF4FF49A729D
:10060800072B6CD9DFED386A1346F7EE007A083B02
:10061800072B67EEA67AFAD802F00702DAB1F2EEF3
:10062800046A012A67EEA67A15D0022A67EEA67A2E
:1006380011D0032A67EEA67A0DD0042A67EEA67AAF
:1006480009D0052A67EEA67A05D067EEA67A062AAB
:1006580018BF67EEA67A002C3BD087EE277A5DF8A4
:10066800044B20EE070A70479178A1F13003092B5B
:1006780002F1020230D80124AFE75378A3F1300128
:10068800C8B2092802F1010293D8F2EE046AF0EE2A
:10069800665A07EE901AF8EEE77A12F8013F87EEED
:1006A800A66AA3F13001C8B2092866EEA56A37EE3A
:1006B800067AEED97DE75378BFEE000A02465EE778
:1006C8009178A1F13003092B02F1020284D9F7EEE7
:1006D800007A27EE277AC2E7F7EE007ABDE7F7EE51
:1006E800007A9BE70000000020BCBE4C0028F0B454
:1006F80003DA2D230B7040420131092804464FF0DC
:10070800010307DD03EB83035B00B0FBF3F2092A67
:10071800F8D883B10F48A0FB0326B4FBF3F2092AEB
:1007280002F1570C02F1300709DD03FB1244F3080C
:1007380001F801CBEFD100230B70F0BC704703FB2D
:100748001244F30801F8017BE5D100230B70F0BCDB
:10075800704700BFCDCCCCCC884270B44FF00104B8
:1007680042D301FB04F4B0FBF4F58D42F9D2ECB1AD
:1007780042BB092D04FB150005F1570605F13002AF
:100788000EDDB4FBF1F403F8016B7CB1B0FBF4F5BA
:10079800092D04FB150005F1570605F13002F0DCC0
:1007A800B4FBF1F403F8012B002CEFD100221A70EE
:1007B80070BC704703F8016BB4FBF1F4002CF5D062
:1007C800B0FBF4F5092D04FB150005F1370605F11A
:1007D8003002EFDCB4FBF1F403F8012B002CEFD16D
:1007E80000221A7070BC70470546002AEAD1C0E79B
:1007F80003685A1C02601970704700BF2DE9F04762
:10080800089C2578002B804689460CBF4FF0200AAB
:100818004FF0300A661C25B3002A26DD334601E076
:10082800024698B113F8011B501E0029F8D1971EF3
:1008380060B13D46013D51464046C8476B1C002B00
:10084800F8DC257827EAE770013045B1041B294612
:100858004046C847301916F8015B002DF7D1BDE8AE
:10086800F087002A03DC2846F9E70020EEE7571E48
:10087800DFE700BF034600F11001FF221A705A702B
:1008880002339942FAD1027042708270C2700271CA
:1008980042717047FF2310B42E212D242F2244715A
:1008A8008171C271C370037103724372437383739E
:1008B8005DF8044B704700BF10B400223D240123AB
:1008C80004218471C17102704271437003715DF833
:1008D800044B7047084B09498B4203D309E0143392
:1008E8008B4206D21A88C2F30B029042F7D11846FF
:1008F8007047002318467047B4BA030864BF03085A
:1009080070B50546B0F80900FFF7E4FF064B1E78FE
:1009180004462846FFF732FD16B1A368184470BD97
:1009280063681844FBE700BFB80E002038B50546D9
:100938000C46FFF7E5FF2A7902F0070302F0600290
:10094800602A28D1022B0ED0042B18D03BB96A7923
:1009580001239340DBB2027814B11343037038BD0E
:1009680022EA0303FAE76A79012393409BB20288DB
:1009780014B113430380F2E722EA0303FAE76A7922
:10098800012303FA02F2036814B113430360E6E794
:1009980023EA0203FAE7042BE1D8DFE803F00303B4
:1009A800050507000470DAE70480D8E70460D6E795
:1009B800002306214FF47A720170C0E90123037302
:1009C800704700BF2C22022302704370704700BF9B
:1009D80008307047704700BF81617047012380F875
:1009E8005030704790F8213033B1012B03D14FF4C8
:1009F80000630383704770474FF480630383704735
:100A0800704770474378007840EA032010FB01F0F4
:100A18004FF4807190FBF1F000F30F0000B27047C3
:100A28002DE9F04FDFF8DCC1754CDCF80450228862
:100A3800B4F90AA0C2EB25135200C2EBE502B4F9DF
:100A480002505B436A43B4F904501B135D43AD1372
:100A580005EBE225B5F5FA324FEAE57B85B04BF1B7
:100A6800FF33CDE90023DDE900325343009AA56145
:100A7800A2FB0289CDE90201B4F908200199009886
:100A880009EB43095143D31700FB0311A2FB0023D1
:100A98000B444FEAEA7B0AFB09F11F0308FB0B131F
:100AA800AAFB080119444FEA102A4AEA016A160308
:100AB8004FEA212B47EA12571AEB0602E6884BEB5E
:100AC800070312F1000A43F5004BAAFB060106FBD7
:100AD8000B114A10CB1752EA030100F08E80B4F9CB
:100AE8001060009806FB09F1F71708FB0711A6FB31
:100AF80008673944B4F90E808B4601994FEAE879C2
:100B080008FB01F100FB0911A8FB00898944DCF806
:100B180008104FEA4947C1F5801C47EAD837B24662
:100B28004FEA4846B4F90C801AEB060A66464BEBC6
:100B3800070BF7174FEAC806019600260096F90733
:100B4800DDE900674FEACC7016EB0A0647EB0B07A6
:100B580041EA5C01801B61EB070140F6354C894690
:100B6800A0FB0C010CFB091132F01EFAB4F9162097
:100B7800B4F914A04E13470B47EAC14702FB06FC21
:100B8800D31707FB03CCA2FB07236344564307FB99
:100B98000366A2FB07233344560E46EAC3163218EF
:100BA8004FEA636747EB010380460AFB01F14FEA0E
:100BB800EA7B08FB0B17AAFB08013944C60C46EA76
:100BC800413612EB06084FEAE147B4F9122043EB2D
:100BD80007094FEA182141EA096113010B44029AF7
:100BE8000AB11B0A1360039B23B105EB8505803509
:100BF8002D121D6005B0BDE8F08F0023EFE700BFA0
:100C08001C6D0020B80E002070472DE9F041334BD1
:100C1800334E9A897489B6F91450B6F90480B6F936
:100C28000E70B6F920C01B69121B34895443E213B5
:100C3800B6F912401544E40294FBF5F4B6F90250F3
:100C48001444A4F57A6E0EFB0EF20EFB05F50EFBAE
:100C580008FEB6F90C80F4611213574302FB08F240
:100C6800121402EB6E32ED1205EBE7270232B6F9E9
:100C78000050B6F806E0921002F5004207EB85072F
:100C88000EFB02F207FA0CF74FEAD23E02374CF29B
:100C98005032A3EBA70742FA0CF37B4355BF5B0026
:100CA800B3FBFEF3B3FBFEF35B0078B11A1202FB51
:100CB80002F540F6DE326A430A4D12145D4302EB38
:100CC800254202F6CF6203EB2213036021B10A2307
:100CD8005C43083424110C60BDE8F081B80E002094
:100CE800E46C002043E3FFFF6D4B2DE9F04F5C6996
:100CF8006C4BB3F80AE0B3F804809A894FEA0E2ADD
:100D0800B4EB0A044FEA1E6B4FF0000587B065EBA1
:100D18000B05CDE900450746009C1889019EA0FBFC
:100D2800044500FB0655E00940EA45604FEA0844DF
:100D38008C46E9114FEA184510EB0408D888009C46
:100D480041EB0509CDE90489A0FB0445B3F802800D
:100D580000FB0655200A40EA05604FEAC83429120C
:100D68004FEA584510EB040841EB05090099A2FB2E
:100D7800010102FB06114FEAD05A4AEA412A1AF544
:100D8800FA634FEAE15B4BF10004B3F5FA6FCDE982
:100D9800023474F10003424E64DA0524AAFB04010C
:100DA80004FB0B1100FB0BF40AFB0144DDE90423EF
:100DB800A0FB0A0121444D104FEA3004121B4FEAF0
:100DC800900463EB050344EA8174B8EB0408CDE9A9
:100DD8000423DDE9023434484FEAA10569EB05092B
:100DE8004FF0FF31834274EB010326DA40F6AC5032
:100DF8001AEB00024FF000014BEB010302FB03F179
:100E0800A2FB022303EB4103D400DD00101B45EADB
:100E1800527563EB0501DDE9044524184D41CDE920
:100E280004450B24A2FB040104FB031149104FEAFB
:100E38003000B8EB000869EB0109DDE900325343E3
:100E4800009ADDE90201A2FB02AB0BEB430B4FEA70
:100E5800DA7242EA4B02801A4FEAEB7361EB030144
:100E6800CDE9020197B1B169A1FB082301FB093360
:100E7800540D5D1544EAC324DDE90423A21A65EB89
:100E880003031D46D30B43EA45433B60BCF1000F07
:100E980002D0029BCCF8003007B0BDE8F08F00BF4D
:100EA800B80E0020086D002024FAFFFF13B50C4689
:100EB8006A4603210C3016F0DFFCA0B19DF8002033
:100EC8009DF8013043EA022323809DF802209DF813
:100ED800033043EA0223A3809DF804209DF80530DF
:100EE80043EA0223638002B010BD07B5F7216A46C2
:100EF80016F0C2FC9DF801309DF800100B4A1B014A
:100F080043EA01339DF8021043EA111393609DF8F8
:100F180004309DF803101B0143EA01339DF80510C6
:100F280043EA1113536003B05DF804FBB80E0020C8
:100F380070B4D0E90041057B02690223AB406360CD
:100F48000B684FF6FE7003400B60EFF311835021DE
:100F580081F31288D66B3168C9071CD4706870B9E0
:100F6800D2E909418C4213D095690D44F56017D830
:100F78001469611A71609062002182F85810326811
:100F880042F00102DBB2326083F3118870BC704713
:100F9800012182F85810DBB283F3118870BC7047C6
:100FA800611A71609462E7E770B40468037B226891
:100FB800022101FA03F31A4216D0026911481249B4
:100FC800642505FB02020D785068016875B915693A
:100FD800528928684FF6FE7630402860C868D243A8
:100FE80092B20240CA60636070BC704700690268D0
:100FF8004FF6FE752A400260CA684FF6FF6002404D
:10100800CA60F0E7D43C0020D03C002038B5074C3B
:10101800074DAC4203D3074B00221A7038BD6288D3
:10102800D4E9010132F05DFB1434F2E7B4BA0308E5
:1010380064BF0308B80E002038B5074C074DAC4212
:1010480003D3074B01221A7038BD6288D4E9011016
:1010580032F047FB1434F2E7B4BA030864BF03085C
:10106800B80E002010B42721262401220023047082
:1010780041708270C3705DF8044B704770B5448846
:101088000546C4F30B0422460846002132F04DFB06
:101098002969094A9142034602D3084A914204D376
:1010A80041B11846BDE8704008472246BDE8704087
:1010B80032F017BB70BD00BF64BF030874C00308DB
:1010C80010B50368017B1A6802238B40134204465B
:1010D8000FD00F4AD3690133202BD3610AD11822CC
:1010E80000210C4832F021FB217B226802238B402F
:1010F800536010BD222BF7D10023D361064A137029
:101108004268136823F001031B041B0C1360EBE710
:10111800B80E0020681400205B14002030B40223AD
:1011280014210122152522240372417000234FF651
:10113800FF714571C47002700271827043818381AE
:10114800C3810182817430BC704700BF30B504464A
:10115800406D21710368A26823F00103036087B022
:101168006379009213F0040F4FEA03324FEA032326
:1011780014BF4FF48055002503F4806302F4005235
:101188000195CDE90223002511F0010305952ED123
:10119800049308238D07694648BF04931AF032FD6B
:1011A8002079636D617900F00202002A15BF4FF4BF
:1011B80040324FF480324FF40034002410F0010F15
:1011C800586808BF2246CC074CBF024320EA0202F7
:1011D8005A609A6809074CBF42F0080222F00802D8
:1011E8009A601A6842F001021A6007B030BD042301
:1011F80004930C23CEE700BF30B50446406DA160D0
:10120800036823F0010303606379257987B013F03D
:10121800040F4FEA03324FEA032303F4806302F416
:101228000052CDE90223009114BF4FF480510021F0
:10123800EB0748BF042301914FF00001CDE90411E9
:1012480054BF08230493694648BF0C23AD0748BF21
:1012580004931AF0D7FC2079636D617900F00202DB
:10126800002A15BF4FF440324FF480324FF4003457
:10127800002410F0010F586808BF2246CC074CBF65
:10128800024320EA02025A609A6809074CBF42F0FA
:10129800080222F008029A601A6842F001021A60F5
:1012A80007B030BD08B5202132F056FA034618467B
:1012B80023B10278202A03F10103F8D008BD00BF4A
:1012C80001211BF0C3B970B50D461446FFF7EAFFBC
:1012D8000646A0B1FFF7F4FF40F634039842A8BFD2
:1012E8001846B0F5617FB8BF4FF461701923A0F5B7
:1012F800617090FBF3F02870237801332370304637
:10130800FFF7D0FF0646A0B1FFF7DAFF40F6340337
:101318009842A8BF1846B0F5617FB8BF4FF4617016
:101328001923A0F5617090FBF3F0687023780133FE
:101338002370304670BD7FB5002500F10C060C46C1
:101348000D804D808D800DF107020621304616F084
:101358002DFA10B9002004B070BD9DF807305B0766
:10136800F8D502AA2946304616F086FA0028F1D0A8
:101378009DF809209DF8083043EA022323809DF850
:101388000B209DF80A3043EA022363809DF80D2064
:101398009DF80C3043EA0223A380DCE738B52C2201
:1013A800002132F0C2F9034640F2DC51642040F2D9
:1013B8001A4240F2022418745982132019219A8281
:1013C80040F2753240F26C751C8398760E24022028
:1013D8001977DA830A210122DD8283F82A0040F690
:1013E800430583F82B1083F822409A7383F825204D
:1013F80083F829201D8419460248BDE8384030F09A
:1014080039BE00BF947F0308014B18600CF0E0B8A8
:10141800C038002070B5244924480A784B78CD7B21
:101428002349244EC2EB0214C2EB840203EB4304AB
:10143800002D03EB8403204D204C01EB430300EB0C
:10144800420214BF2821202133602260296028F03D
:1014580011FD302200211A4832F067F9206824F083
:101468005FFC28F079FC174A17491079174A184B7E
:101478001160C822642111FB00210022C3E9011276
:10148800C3E90322C3E90522DA6183F8202083F83F
:10149800212030F0CDF80F4BBDE8704093F82210B2
:1014A800188C27F0AFBA00BFE414002010150020F4
:1014B800B01600208C1E0020D00700200015002048
:1014C8009C62002000590020681C0020EC100020BD
:1014D8007C170020B80E00200C290ED8DFE801F098
:1014E8001B0D0D0D140D0D0D0E0D0D0D0700C3690F
:1014F80023F4006343EA0222C2617047C36923F000
:1015080008031A43C2617047836923F4006343EAFE
:10151800022282617047836923F008031A438261BB
:10152800704700BFF0B40C292BD8DFE801F0752A0A
:101538002A2A502A2A2A2C2A2A2A0700046AB2F8B8
:101548000CC0978816686B4D24F480540462036AB3
:101558004468C16923F4005343EA0C3321F4E6419B
:10156800A84243EA073341EA062100F0BC8005F5AA
:101578000065A84200F0B78092684460C1610264C7
:101588000362F0BC7047046AB2F80CC0978816680A
:10159800584D24F480740462036A4468C16923F4D2
:1015A800007343EA0C2321F07301A84243EA07239E
:1015B80041EA060100F0848005F50065A8427FD065
:1015C80092684460C161F0BCC26303627047046AF8
:1015D800B2F80CC097881668464D24F010040462CF
:1015E800036A4468816923F0200321F0807143EA8B
:1015F8000C1321F4E641A84243EA071341EA062105
:101608004BD005F50065A84247D0926844608161D7
:10161800F0BC826303627047046A9389B2F804C01D
:101628001768344E24F001040462046A456881692D
:1016380021F4803124F0020443EA0C0321F0730101
:10164800B04243EA040341EA07010ED02A4CA04203
:101658000BD004F54064A04207D004F58064A04292
:1016680003D004F58064A04210D1D489168A578A21
:10167800B2F806C023F00803234325F4407523F08D
:10168800040346EA07044CEA0303254392684560CD
:101698008161F0BC426303627047D589178AD68896
:1016A80023F0800343EA051324F44064558A23F0A9
:1016B800400344EA870443EA061344EA8504A4E79E
:1016C800D589178AD68823F4006343EA052324F4CE
:1016D8004054558A23F4806344EA071443EA0623F6
:1016E80044EA05146CE7158A24F4804444EA851416
:1016F80042E700BF002C0140003401402DE9F047CB
:101708004FF48C7200212948294D2A4E2A4FDFF8C0
:10171800B880DFF8B890DFF8B8A032F006F8274AAA
:101728002748DFF8B0C0DFF8B0E002F5CC7119E067
:10173800B3F1804F23D0B34226D0BB4226D06345B5
:1017480026D0734526D0434526D04B4527D0534550
:1017580028D01C4CA34208BF4FF4802407D018326D
:101768008A420AD013688342E2D14FF40064AB691D
:10177800183223438A42AB61F4D1BDE8F0870123D4
:10178800EC692343EB61EAE70223F9E70423F7E76F
:101798001023F5E72023F3E74FF40054E7E74FF46D
:1017A8008034E4E74FF40034E1E700BFD82E00208E
:1017B8000010024000040040000800407C64030858
:1017C800002C014000480140003401400040014025
:1017D8000044014000100040001400402DE9F84387
:1017E8002F4D2A69EB6812EA030826D02D4E4FF0D8
:1017F8000047B8FA88F327FA03F2D2431B3B2A6161
:1018080008EA0208042B15D8DFE803F0372D23195E
:101818000300D6F81431002B39D1EB6A1FFA83F98B
:10182800D6F8104134B12368204649469847646881
:10183800002CF8D1B8F1000FDBD1BDE8F883D6F859
:10184800F000696B036889B29847B8F1000FD0D1EE
:10185800F3E7D6F8F400A96B036889B29847B8F1A2
:10186800000FC6D1E9E7D6F8F800E96B036889B23A
:101878009847B8F1000FBCD1DFE7D6F8FC00296C17
:10188800036889B29847B8F1000FB2D1D5E703F1E0
:10189800FF3900231FFA89F9C6F81431C0E700BFE1
:1018A80000480140D82E00202DE9F8432F4D2A6921
:1018B800EB6812EA030826D02D4E4FF00047B8FA1D
:1018C80088F327FA03F2D2431B3B2A6108EA02088D
:1018D800042B15D8DFE803F0372D23190300D6F8B9
:1018E800C430002B39D1EB6A1FFA83F9D6F8C0400F
:1018F80034B123682046494698476468002CF8D1DB
:10190800B8F1000FDBD1BDE8F883D6F8A000696B09
:10191800036889B29847B8F1000FD0D1F3E7D6F839
:10192800A400A96B036889B29847B8F1000FC6D123
:10193800E9E7D6F8A800E96B036889B29847B8F1D7
:10194800000FBCD1DFE7D6F8AC00296C036889B278
:101958009847B8F1000FB2D1D5E703F1FF3900235A
:101968001FFA89F9C6F8C430C0E700BF004001403B
:10197800D82E00202DE9F8432E4D2A69EB6812EA8B
:10198800030826D02C4E4FF00047B8FA88F327FA00
:1019980003F2D2431B3B2A6108EA0208042B15D83C
:1019A800DFE803F0352B22190300D6F89C30002B12
:1019B80037D1EB6A1FFA83F9D6F8984034B1236817
:1019C8002046494698476468002CF8D1B8F1000FC2
:1019D800DBD1BDE8F883B06F696B036889B29847BB
:1019E800B8F1000FD1D1F4E7F06FA96B036889B2A1
:1019F8009847B8F1000FC8D1EBE7D6F88000E96B3B
:101A0800036889B29847B8F1000FBED1E1E7D6F86C
:101A18008400296C036889B29847B8F1000FB4D1E3
:101A2800D7E703F1FF3900231FFA89F9C6F89C307C
:101A3800C2E700BF00080040D82E00202DE9F84377
:101A48002B4D2A69EB6812EA030824D0294E4FF07F
:101A58000047B8FA88F327FA03F2D2431B3B2A61FE
:101A680008EA0208042B13D8DFE803F0322920170C
:101A78000300736F002B34D1EB6A1FFA83F9346FBC
:101A880034B123682046494698476468002CF8D149
:101A9800B8F1000FDDD1BDE8F883306D696B0368DC
:101AA80089B29847B8F1000FD3D1F4E7706DA96BEC
:101AB800036889B29847B8F1000FCAD1EBE7B06D57
:101AC800E96B036889B29847B8F1000FC1D1E2E722
:101AD800F06D296C036889B29847B8F1000FB8D146
:101AE800D9E703F1FF3900231FFA89F97367C6E7BD
:101AF80000040040D82E00202DE9F8434FF080451F
:101B08002A69EB6812EA030824D0294E4FF00047EF
:101B1800B8FA88F327FA03F2D2431B3B2A6108EA92
:101B28000208042B13D8DFE803F03229201703003A
:101B3800F36C002B34D1EB6A1FFA83F9B46C34B11F
:101B480023682046494698476468002CF8D1B8F1C4
:101B5800000FDDD1BDE8F883B06A696B036889B20C
:101B68009847B8F1000FD3D1F4E7F06AA96B03687E
:101B780089B29847B8F1000FCAD1EBE7306BE96B2F
:101B8800036889B29847B8F1000FC1D1E2E7706BDA
:101B9800296C036889B29847B8F1000FB8D1D9E722
:101BA80003F1FF3900231FFA89F9F364C6E700BF80
:101BB800D82E00202DE9F8435A4D2A69EB6812EA1D
:101BC800030825D0584E4FF00047B8FA88F327FA93
:101BD80003F2D2431B3B2A6108EA0208042B14D8FB
:101BE800DFE803F04A41382F0300736A002B40F006
:101BF8009280EB6A1FFA83F9346A34B1236820466D
:101C0800494698476468002CF8D1B8F1000FDCD138
:101C1800464D2A69EB6812EA03084AD0424E4FF053
:101C28000047B8FA88F327FA03F2D2431B3B2A612C
:101C380008EA0208042B39D8DFE803F05B51473D76
:101C480027003068696B036889B29847B8F1000FBC
:101C5800BBD1DDE77068A96B036889B29847B8F112
:101C6800000FB2D1D4E7B068E96B036889B298472E
:101C7800B8F1000FA9D1CBE7F068296C036889B2E5
:101C88009847B8F1000FA0D1C2E7D6F8EC30002B86
:101C980039D1EB6A1FFA83F9D6F8E84034B12368E2
:101CA8002046494698476468002CF8D1B8F1000FDF
:101CB800B7D1BDE8F883D6F8C800696B036889B264
:101CC8009847B8F1000FACD1F3E7D6F8CC00A96B70
:101CD800036889B29847B8F1000FA2D1E9E7D6F8AE
:101CE800D000E96B036889B29847B8F1000F98D122
:101CF800DFE7D6F8D400296C036889B29847B8F1B1
:101D0800000F8ED1D5E703F1FF3900231FFA89F9B7
:101D1800C6F8EC30C0E703F1FF3900231FFA89F950
:101D2800736269E7002C0140D82E0020004401406E
:101D38002DE9F8432B4D2A69EB6812EA030824D0F1
:101D4800294E4FF00047B8FA88F327FA03F2D24336
:101D58001B3B2A6108EA0208042B13D8DFE803F0CA
:101D6800322920170300736A002B34D1EB6A1FFA5B
:101D780083F9346A34B12368204649469847646831
:101D8800002CF8D1B8F1000FDDD1BDE8F883306838
:101D9800696B036889B29847B8F1000FD3D1F4E7AB
:101DA8007068A96B036889B29847B8F1000FCAD167
:101DB800EBE7B068E96B036889B29847B8F1000FA0
:101DC800C1D1E2E7F068296C036889B29847B8F195
:101DD800000FB8D1D9E703F1FF3900231FFA89F9B9
:101DE8007362C6E7002C0140D82E0020F0B50668C3
:101DF8004D4CB30AA34200F094800AD94B4CA3423D
:101E080000F089800134A34266D0023CA34267D027
:101E1800F0BD4A3CA34200F081800134A34205D0C2
:101E2800B3F5801FF4D14827012501E09827032541
:101E380090F805C002232CFA03F084468340A800DA
:101E4800002955D0D6F80CE044190CEB440C9BB291
:101E5800374C43EA0E030CF1040E44F82C1044F8F6
:101E68002E20F360E319EFF31181502282F31288D8
:101E7800421904EBC202D2F810C0BCF1000F03D023
:101E880044F807C013690433421904EBC2025769C6
:101E980017B11F6053690433421904EBC2029769F2
:101EA80017B11F6093690433421904EBC202D76962
:101EB80017B11F60D36904330022C9B21A6081F3D5
:101EC8001188284404EBC004236A63B9F3684FF609
:101ED800FE721340F360F0BD4FF488770625A7E73C
:101EE800C0270425A4E7F36843F00103F360F0BDBD
:101EF800D6F80CE00E4CDB439BB203EA0E0300EB72
:101F0800050E0CEB4E0CF3600CF1040344F82C1096
:101F180044F82320A6E7E827052589E77027022546
:101F280086E72027002583E74B00100051001000AA
:101F3800D82E002030B50368594D1888594CB4FB89
:101F4800F2F20139013AAB4294B283B089B282B25B
:101F58000DD0554883420AD0B3F1804F07D0A0F581
:101F68009830834203D000F58060834202D122F08A
:101F7800700292B24D48834269D000F58060834276
:101F880041D022F4407200F58C3092B283421A801C
:101F9800D9621C8564D100221A8601225A611A88E6
:101FA8003F4942F001028B421A8069D0B3F1804F59
:101FB80068D03F4A934267D002F58062934265D069
:101FC80002F50062934263D002F58062934261D0C9
:101FD80002F5903293425FD002F5406293425DD0A1
:101FE80002F58062934217D002F58062934208BFDF
:101FF800092212D002A84FF0012340F8043D18F03E
:10200800B7FA03B030BD01201A80D9621C85586127
:102018001A8802431A80C9E70822264B03EBC20339
:1020280001A85C7E8DF80440012300228DF805305C
:102038008DF807308DF8062018F09AFA1B2CE0D19D
:102048001D4B019301A818F093FA03B030BD01208D
:102058001A80D9621C8558611A8802431A80A8E739
:10206800114A934297D002F54062934293D002F509
:10207800806293428FD002F5806293428BD08CE7C6
:102088000022CAE70122C8E70222C6E70322C4E702
:102098000422C2E70522C0E70622BEE70722BCE702
:1020A800002C014000A24A04003401400010004006
:1020B80000040040D8370308190100011F4B98425B
:1020C8002CD0B0F1804F2BD0A3F59433984229D06F
:1020D80003F58063984227D003F50063984225D022
:1020E80003F58063984223D003F59033984221D0BA
:1020F80003F5406398421FD003F58063984207D0E8
:1021080003F58063984208BF092202D00020704777
:1021180008220B4B03EBC203187E70470022F8E736
:102128000122F6E70222F4E70322F2E70422F0E7AD
:102138000522EEE70622ECE70722EAE7002C014039
:10214800D837030870B4104E002332461D460324C6
:1021580003E00133112B0CD0947930EA040402F126
:102168001802F6D1A94207D001330135112BEDB27F
:10217800F2D1002070BC704703EB430306EBC303A6
:1021880070BC1879704700BF7C64030810B5002143
:1021980004460120FFF7D6FF207010BD10B40C4C88
:1021A80010212246002303E00133112B0BD01179B3
:1021B800884202F11802F7D103EB430304EBC30092
:1021C8005DF8044B704700205DF8044B704700BF72
:1021D8007C6403082DE9F04F013085B0C3B2039346
:1021E800994C9A4FDFF874A2994D9A4E0A2302939C
:1021F80015F03CF94FF4FA73DFF86CE201934FF0F5
:102208001008DAF80430C3F30803002B40F0D98033
:10221800EFF31183002B40F0D4802068AA6823686C
:102228009842FAD133689A42F7D8D7F800C04FF4E9
:102238007A7101FB0CF39B1AB3FBFCF301FB003032
:102248004FF47A7C4FF00109DAF80430C3F308033D
:10225800002B40F09880EFF31183002B40F093801F
:102268002368A96822689342FAD132689142F7D864
:102278003A680CFB02FBABEB0101B1FBF2F10CFB82
:1022880003131B1AB3F57A7FDED3019B013B01933D
:10229800B7D1039814F03EFF4FF47A73DFF8C8E122
:1022A80001934FF01008DAF80430C3F30803002B49
:1022B80040F0A880EFF31183002B40F0A380206842
:1022C800AA6823689842FAD133689A42F7D8D7F8AF
:1022D80000C04FF47A7101FB0CF39B1AB3FBFCF3BB
:1022E80001FB00304FF47A7C4FF00109DAF8043032
:1022F800C3F308034BBBEFF3118333BB2368A9680F
:1023080022689342FAD132689142F7D83A680CFBB6
:1023180002FBABEB0101B1FBF2F10CFB03131B1A3F
:10232800B3F57A7FE2D3019B013B0193BBD1029BBA
:10233800013B02937FF45CAF4749484B4848494A00
:102348000860DA6005B0BDE8F08FEFF3118188F31B
:102358001288D5F808B02B68DB0344BFCEF800908C
:10236800D5F808B02368DEF80020C9B281F31188D7
:10237800396813440CFB01F2A2EB0B02B2FBF1F239
:102388000CFB0323CBE7EFF3118188F31288D5F810
:1023980008B02B68DB0344BFCEF80090D5F808B02E
:1023A8002368DEF80020C9B281F311883968134424
:1023B8000CFB01F2A2EB0B02B2FBF1F20CFB0323C4
:1023C8005FE7EFF3118388F31288D5F808C02A680D
:1023D800D20304D50122CEF80020D5F808C0206821
:1023E800DEF80090DBB283F3118839684FF47A7213
:1023F800484402FB01F3A3EB0C03B3FBF1F302FB2C
:1024080000301DE7EFF3118388F31288D5F808C070
:102418002A68D20304D50122CEF80020D5F808C0D6
:102428002068DEF80090DBB283F3118839684FF436
:102438007A72484402FB01F3A3EB0C03B3FBF1F3FC
:1024480002FB00304EE700BFC42D0020C82D00203D
:1024580010E000E0CC2D0020FC9F002000ED00E003
:10246800EFBEADDE0400FA05C02D00202DE9F04FC7
:1024780085B0CDE902109B4DDFF878A2029B013BA5
:102488000293013300F02A8114F0F0FF964C974F25
:10249800DFF864E2964E4FF4FA7301934FF0100898
:1024A800DEF80430C3F30803002B40F0F680EFF3A6
:1024B8001183002B40F0F1802068AA6823689842B5
:1024C800FAD133689A42F7D8D7F800C04FF47A7136
:1024D80001FB0CF39B1AB3FBFCF301FB00304FF438
:1024E8007A7C4FF00109DEF80430C3F30803002BAF
:1024F80040F0B580EFF31183002B40F0B0802368E3
:10250800A96822689342FAD132689142F7D83A68AA
:102518000CFB02FBABEB0101B1FBF2F10CFB03136B
:102528001B1AB3F57A7FDED3019B013B0193B7D128
:10253800039B6F4E581CC0B214F0ECFDDFF8B8E1F5
:102548004FF47A730193DEF80430C3F308034FF0B5
:102558001008002B44D1EFF31183002B40D12068E1
:10256800AA6823689842FAD133689A42F7D8D7F80C
:1025780000C04FF47A7101FB0CF39B1AB3FBFCF318
:1025880001FB00304FF47A7C4FF00109DEF804308B
:10259800C3F30803002B44D1EFF31183002B40D180
:1025A8002368A96822689342FAD132689142F7D821
:1025B8003A680CFB02FBABEB0101B1FBF2F10CFB3F
:1025C80003131B1AB3F57A7FE0D3019B013B0193F8
:1025D8003FF454AFDEF80430C3F30803002BBAD03D
:1025E800EFF3118388F31288D5F808C02A68D2035C
:1025F80004D50122CAF80020D5F808C02068DAF806
:102608000090DBB283F3118839684FF47A7248443A
:1026180002FB01F3A3EB0C03B3FBF1F302FB003065
:10262800B0E7EFF3118188F31288D5F808B02B686A
:10263800DB0344BFCAF80090D5F808B02368DAF87D
:102648000020C9B281F31188396813440CFB01F2E8
:10265800A2EB0B02B2FBF1F20CFB0323B1E7EFF3A1
:10266800118188F31288D5F808B02B68DB0344BFC2
:10267800CAF80090D5F808B02368DAF80020C9B283
:1026880081F31188396813440CFB01F2A2EB0B02A9
:10269800B2FBF1F20CFB032342E7EFF3118388F35B
:1026A8001288D5F808C02A68D20304D50122CAF8CE
:1026B8000020D5F808C02068DAF80090DBB283F370
:1026C800118839684FF47A72484402FB01F3A3EB8E
:1026D8000C03B3FBF1F302FB003000E705B0BDE8E3
:1026E800F08F00BF10E000E0C42D0020C82D0020AE
:1026F800CC2D0020C02D002000ED00E0224B5B68AF
:10270800C3F3080330B4D3B9EFF31183BBB91F4A3D
:102718001F4D20481368846811688B42FAD12968D4
:102728008C42F7D81C4A11684FF47A7202FB01F008
:10273800001B30BCB0FBF1F002FB03007047EFF365
:102748001182102383F3128803F1E023D2B29C682C
:10275800196811F4803F11491EBF012008609C6868
:102768000A4B18680B6882F311880B4A11684FF4FA
:102778007A72034402FB01F0001B30BCB0FBF1F09D
:1027880002FB0300704700BF00ED00E0C42D0020ED
:10279800CC2D002010E000E0C82D0020C02D002026
:1027A8002DE9F84F8046274C274DDFF8A490274E97
:1027B800FFF7A4FFDFF89CE0DFF89CC04FF0100A99
:1027C8004FF47A77DCF80430C3F30803CBB9EFF39E
:1027D8001183B3B92368A96822689342FAD1326891
:1027E8009142F7D8DEF8002007FB02FBABEB0101B2
:1027F800B1FBF2F107FB03131B1A4345E2D3BDE813
:10280800F88FEFF311818AF31288D5F808B02B6896
:10281800DB0304D50123C9F80030D5F808B02368D4
:10282800D9F80020C9B281F31188DEF800101344EA
:1028380007FB01F2A2EB0B02B2FBF1F207FB032349
:10284800DAE700BFC42D002010E000E0CC2D002006
:10285800C02D0020C82D002000ED00E0F8B5304E56
:10286800304D32782B789A424FD12F4B93F800C0D5
:10287800BCF1000F48D02D4A2D4B1078002140F2B2
:102888000D3E11E05C681F896760276847F0010703
:102898002760A2F848E0D468013144F480748C457C
:1028A800D46003F59A730FDD1A680028EAD15062E4
:1028B800B3F83041D76801313C438C45D46003F507
:1028C8009A7323F8040CEFDC31782B7899421BD0EB
:1028D80003EB83029200174FB858BE18A0B9327A9A
:1028E80092B9727A82B9013303F00303D8B28142F4
:1028F800287009D003EB83039C003B191A72FFF779
:10290800FDFE736803443B51F8BD1BF035FF0028FA
:10291800FAD0054B93F800C0BCF1000FABD1D3E758
:10292800D84B0020D94B0020F43F0020D03C002099
:10293800F83F0020DC4B00202DE9F04FDFF834C1D0
:10294800494CDFF834E1DFF83481484E8246484884
:102958001AF1FF3AC0F08680DCF80430C3F30803AC
:10296800002B5ED1EFF31183002B5AD10568A268C2
:1029780003689D42FAD133689A42F7D8DEF80070AE
:102988004FF47A7101FB07F39B1AB3FBF7F301FBD2
:102998000535DCF80430C3F308034FF010094FF491
:1029A8007A77F3B9EFF31183DBB90368A16802689A
:1029B8009342FAD132689142F7D8DEF8002007FB3B
:1029C80002FBABEB0101B1FBF2F107FB03135B1B4D
:1029D800B3F57A7FBCD2DCF80430C3F30803002BCC
:1029E800E0D0EFF3118189F31288D4F808B0236896
:1029F800DB0304D50123C8F80030D4F808B0036815
:102A0800D8F80020C9B281F31188DEF80010134409
:102A180007FB01F2A2EB0B02B2FBF1F207FB032367
:102A2800D5E7EFF31183102282F31288A168226898
:102A3800D20303D50122C8F80020A168D0F800907D
:102A4800D8F80050DBB283F31188DEF800704FF439
:102A58007A724D4402FB07F35B1AB3FBF7F302FBF0
:102A6800053596E7BDE8F08F10E000E0CC2D00209A
:102A7800C42D002000ED00E0C82D0020C02D00204E
:102A880030B4EFF31183102282F312880848094901
:102A98000268094D094C013202608A682A600022E6
:102AA8002260DBB20A6883F3118830BC704700BF2C
:102AB800C42D002010E000E0CC2D0020C02D002007
:102AC8001D4B70B59C68636DA26BDD69CAB1E36B81
:102AD80033B12B0700D470BD636D08221A6270BD34
:102AE8002A06F6D5D4E909028242616D11D0501C3C
:102AF800A669A062B25C26690A85B042E9D3A362DE
:102B0800E7E7A906E3D5E26A42B1988C216B9047C2
:102B1800DDE70B6823F080030B60DAE7E1699B8C43
:102B28006069DBB24E1CE6614354E169E36899428F
:102B380028BFE261CBE700BF245800201D4B70B5C9
:102B48005C68636DA26BDD69CAB1E36B33B12B07B7
:102B580000D470BD636D08221A6270BD2A06F6D5CE
:102B6800D4E909028242616D11D0501CA669A062A5
:102B7800B25C26690A85B042E9D3A362E7E7A906F1
:102B8800E3D5E26A42B1988C216B9047DDE70B6888
:102B980023F080030B60DAE7E1699B8C6069DBB2A4
:102BA8004E1CE6614354E169E368994228BFE2613B
:102BB800CBE700BF245800201D4B70B51C68636D1F
:102BC800A26BDD69CAB1E36B33B12B0700D470BDCA
:102BD800636D08221A6270BD2A06F6D5D4E9090287
:102BE8008242616D11D0501CA669A062B25C266950
:102BF8000A85B042E9D3A362E7E7A906E3D5E26A0A
:102C080042B1988C216B9047DDE70B6823F0800375
:102C18000B60DAE7E1699B8C6069DBB24E1CE66108
:102C28004354E169E368994228BFE261CBE700BFFA
:102C380024580020002A12DD70B504460D468E186F
:102C4800236820469B6898470028F9D0236815F820
:102C5800011B1B6820469847B542F1D170BD7047EB
:102C68000368DB6A03B11847704700BF03689B6AB3
:102C780003B11847704700BF03682DE9F0415D6A4A
:102C88001DB12B46BDE8F0411847002A174611DD53
:102C980004460E460F4400E023689B682046984788
:102CA8000028F9D0236816F8011B1B6820469847AE
:102CB800BE42F1D1BDE8F08103685B69184700BFE7
:102CC8000368DB68184700BF03689B68184700BFA4
:102CD80003685B68184700BF03681B68184700BF94
:102CE800014B1868F8E700BF28120020054B53F87D
:102CF800203033B11A689B88918A0B4218BF1B0495
:102D080093617047902D002003682DE9F04F03F17F
:102D18003845A94EAD0A0124755D05F01F066D09F9
:102D2800022D04FA06F400F08D81032D00F0858150
:102D3800012D00F03B818088B0FA80F4C4F11F04B3
:102D4800A4B2E50803EB850504F007042E6AA40085
:102D58000F27A74026EA07062E622E6A01F003070E
:102D680002FA04F47A1E3443012AC1F3810EC1F336
:102D780000182C62C1F3411140F22281C60700F10C
:102D88000881850700F1F680440700F1E480020716
:102D980000F1D280C60600F1C080850600F1AE8041
:102DA800440600F19C80020600F18A80C60578D4AA
:102DB800850567D4440556D4020545D4C60434D4E1
:102DC800850423D4440412D4020401D4BDE8F08F4E
:102DD8001A6822F040421A601A6842EA87771F6030
:102DE800DA6822F0404242EA8171D960EEE71A6857
:102DF80022F040521A601A6842EA07721A60DA68CA
:102E080022F0405242EA0172DA60DDE71A6822F0E5
:102E180040621A601A6842EA87621A60DA6822F029
:102E2800406242EA8162DA60CCE71A6822F04072B6
:102E38001A601A6842EA07621A60DA6822F0407279
:102E480042EA0162DA60BBE71A6822F440021A60BB
:102E58001A6842EA87521A60DA6822F4400242EAA3
:102E68008152DA60AAE71A6822F440121A601A68D6
:102E780042EA07521A60DA6822F4401242EA015222
:102E8800DA6099E71A6822F440221A601A6842EA5E
:102E980087421A60DA6822F4402242EA8142DA6004
:102EA80088E71A6822F440321A601A6842EA074230
:102EB8001A60DA6822F4403242EA0142DA6077E7BF
:102EC8001A6822F440421A601A6842EA87321A6085
:102ED800DA6822F4404242EA8132DA6066E71A6828
:102EE80022F440521A601A6842EA07321A60DA6815
:102EF80022F4405242EA0132DA6054E71A6822F4B6
:102F080040621A601A6842EA87221A60DA6822F474
:102F1800406242EA8122DA6042E71A6822F440728B
:102F28001A601A6842EA07221A60DA6822F44072C4
:102F380042EA0122DA6030E71A6822F0C0021A6019
:102F48001A6842EA87121A60DA6822F0C00242EA76
:102F58008112DA601EE71A6822F030021A601A68D5
:102F680042EA07121A60DA6822F0300242EA0112D5
:102F7800DA600CE71A6822F00C021A601A6842EA52
:102F880087021A60DA6822F00C0242EA8102DA60EB
:102F9800FAE61A6822F003021A601A683A431A60BD
:102FA800DA6822F003020A43DA60EAE6034D6E6942
:102FB80034436C61BFE600BF34640308001002406C
:102FC80000224FF0010C4FF003090CFA02F636EA22
:102FD80000042ED15400D3F808A009FA04F5ED43F3
:102FE80005EA0A0AC3F808A0D3F808B00EFA04FAEA
:102FF8004AEA0B0AC3F808A0B3F804A02AEA0606AE
:103008009E80B3F804A008FA02F646EA0A06B6B2A9
:103018009E801E682E401E60D3F800A007FA04F6B2
:1030280046EA0A061E60DE6801FA04F435402C43BD
:10303800DC600132102AC8D1C8E6054DEE69344378
:10304800EC6178E6024DAE693443AC6173E600BFCB
:1030580000100240036803F138422DE9F04F920A4C
:10306800A74DAA5C02F01F0552090124022A04FA9E
:1030780005F400F09F81032A00F09781012A00F0EF
:10308800518101F003077A1E012AC1F3810EC1F3B1
:1030980000188488C1F3411140F24981E60700F124
:1030A8003181A50700F11A81600700F10581220727
:1030B80000F1F080E60600F1DB80A50600F1C6808D
:1030C800600600F1B180220600F19C80E60500F15F
:1030D8008780A50572D460055FD422054CD4E60428
:1030E80039D4A50426D4600413D4220401D4BDE83D
:1030F800F08F1A6822F040421A601A6842EA87770D
:103108001F60DA6822F0404242EA8171D960BDE866
:10311800F08F1A6822F040521A601A6842EA077261
:103128001A60DA6822F0405242EA0172DA60220438
:10313800DDD5DEE71A6822F040621A601A6842EAB2
:1031480087621A60DA6822F0406242EA81626004AB
:10315800DA60CAD5DDE71A6822F040721A601A6888
:1031680042EA07621A60DA6822F0407242EA0162B3
:10317800A504DA60B7D5DDE71A6822F440021A60C0
:103188001A6842EA87521A60DA6822F4400242EA70
:103198008152E604DA60A4D5DDE71A6822F4401209
:1031A8001A601A6842EA07521A60DA6822F4401272
:1031B80042EA0152DA60220591D5DDE71A6822F465
:1031C80040221A601A6842EA87421A60DA6822F4D2
:1031D800402242EA81426005DA607FF57EAFDCE793
:1031E8001A6822F440321A601A6842EA07421A60E2
:1031F800DA6822F4403242EA0142A505DA607FF536
:103208006AAFDBE71A6822F440421A601A6842EA99
:1032180087321A60DA6822F4404242EA8132E605CF
:10322800DA607FF556AFDBE71A6822F440521A607D
:103238001A6842EA07321A60DA6822F4405242EA0F
:103248000132DA6022067FF541AFDBE71A6822F423
:1032580040621A601A6842EA87221A60DA6822F421
:10326800406242EA81226006DA607FF52CAFDBE734
:103278001A6822F440721A601A6842EA07221A6031
:10328800DA6822F4407242EA0122A506DA607FF584
:1032980017AFDBE71A6822F0C0021A601A6842EA20
:1032A80087121A60DA6822F0C00242EA8112E60642
:1032B800DA607FF502AFDBE71A6822F030021A60A5
:1032C8001A6842EA07121A60DA6822F0300242EA03
:1032D8000112DA6022077FF5EDAEDBE71A6822F00B
:1032E8000C021A601A6842EA87021A60DA6822F049
:1032F8000C0242EA81026007DA607FF5D8AEDBE7AC
:10330800346403081A6822F003021A601A683A4300
:103318001A60DA6822F003020A43A507DA607FF52B
:10332800C3AEDBE7264A55692C435461A9E600225F
:103338004FF0010C4FF003090CFA02F636EA0400CC
:103348002ED15000D3F808A009FA00F5ED430AEA97
:10335800050AC3F808A0D3F808B00EFA00FA4AEA3A
:103368000B0AC3F808A0B3F804A02AEA06069E8050
:10337800B3F804A008FA02F646EA0A06B6B29E8036
:103388001E682E401E60D3F800A007FA00F646EA31
:103398000A061E60DE6801FA00F035402843D8604E
:1033A8000132102AC8D1BDE8F08F054AD5692C43EF
:1033B800D46166E6024A95692C43946161E600BFD0
:1033C8000010024010B50409013C052C17D80E4B1B
:1033D80033F8142000F00F0042FA00F313F0010351
:1033E8000FD0012303FA00F0013810402FF02CFE13
:1033F800064A074B125D104403EBC00010BD0020C5
:1034080010BD184610BD00BF686403087464030843
:10341800C03000202DE9F04F4A484B4B4B4C4FF041
:1034280090414FF0010A4FF002094FF004084FF0A5
:10343800080E4FF0100C20274026802530F8022B6C
:1034480012F0010F03D01960A3F804A0083312F09A
:10345800020F03D01960A3F80490083312F0040F88
:1034680003D01960A3F80480083312F0080F03D0C2
:103478001960A3F804E0083312F0100F03D01960A4
:10348800A3F804C0083312F0200F02D019609F80FF
:10349800083312F0400F02D019609E80083312F0F2
:1034A800800F02D019609D80083312F4807F05D008
:1034B8004FF4807B1960A3F804B0083312F4007F3E
:1034C80005D04FF4007B1960A3F804B0083312F458
:1034D800806F05D04FF4806B1960A3F804B00833EF
:1034E80012F4006F05D04FF4006B1960A3F804B014
:1034F800083312F4805F05D04FF4805B1960A3F89D
:1035080004B0083312F4005F05D04FF4005B196073
:10351800A3F804B0083312F4804F05D04FF4804B61
:103528001960A3F804B00833D20B04D04FF400425A
:1035380019609A80083301F58061A1427FF47EAF5B
:10354800BDE8F08F68640308C03000200018004808
:1035580000B9704703682DE9F04F03F138449C4ED9
:10356800A40A0125345D04F01F066409022C05FA3B
:1035780006F500F07481032C00F06C81012C00F03A
:1035880022818088B0FA80F4C4F11F04A4B2E5084F
:1035980003EB850504F007042E6AA4000F27A74053
:1035A80026EA07062E622E6A01F00307A2407C1E57
:1035B8003243012CC1F3810EC1F300182A62C1F312
:1035C800411140F20981C6070BD51A6822F003029F
:1035D8001A601A683A431A60DA6822F003020A434A
:1035E800DA6085070DD51A6822F00C021A601A688D
:1035F80042EA87021A60DA6822F00C0242EA810283
:10360800DA6044070DD51A6822F030021A601A6889
:1036180042EA07121A60DA6822F0300242EA01121E
:10362800DA6002070DD51A6822F0C0021A601A681B
:1036380042EA87121A60DA6822F0C00242EA81126E
:10364800DA60C6060DD51A6822F440721A601A6844
:1036580042EA07221A60DA6822F4407242EA01223A
:10366800DA6085060DD51A6822F440621A601A6875
:1036780042EA87221A60DA6822F4406242EA81222A
:10368800DA6044060DD51A6822F440521A601A68A6
:1036980042EA07321A60DA6822F4405242EA0132FA
:1036A800DA6002060DD51A6822F440421A601A68D8
:1036B80042EA87321A60DA6822F4404242EA8132EA
:1036C800DA60C6050DD51A6822F440321A601A6805
:1036D80042EA07421A60DA6822F4403242EA0142BA
:1036E800DA6085050DD51A6822F440221A601A6836
:1036F80042EA87421A60DA6822F4402242EA8142AA
:10370800DA6044050DD51A6822F440121A601A6866
:1037180042EA07521A60DA6822F4401242EA015279
:10372800DA6002050DD51A6822F440021A601A6898
:1037380042EA87521A60DA6822F4400242EA815269
:10374800DA60C6040DD51A6822F040721A601A6849
:1037580042EA07621A60DA6822F0407242EA0162BD
:10376800DA6085040DD51A6822F040621A601A687A
:1037780042EA87621A60DA6822F0406242EA8162AD
:10378800DA6044040DD51A6822F040521A601A68AB
:1037980042EA07721A60DA6822F0405242EA01727D
:1037A800DA6002040DD51A6822F040421A601A68DD
:1037B80042EA87771F60DA6822F0404242EA817164
:1037C800D960BDE8F08F034C666935436561D8E67A
:1037D800346403080010024000224FF0010C4FF03F
:1037E80003090CFA02F636EA00042ED15400D3F885
:1037F80008A009FA04F5ED4305EA0A0AC3F808A087
:10380800D3F808B00EFA04FA4AEA0B0AC3F808A07B
:10381800B3F804A02AEA06069E80B3F804A008FAC2
:1038280002F646EA0A06B6B29E801E682E401E6060
:10383800D3F800A007FA04F646EA0A061E60DE6816
:1038480001FA04F435402C43DC600132102AC8D157
:10385800BDE8F08F044CE6693543E56191E6024C1A
:10386800A6693543A5618CE60010024000B970478F
:10387800036803F138422DE9F04F920AB24DAA5C71
:1038880002F01F0552090124022A04FA05F400F087
:103898005F81032A00F05381012A00F00D8101F0B5
:1038A80003077A1E012AC1F3810EC1F30018848828
:1038B800C1F3411140F20581E6070BD51A6822F0E1
:1038C80003021A601A683A431A60DA6822F003029F
:1038D8000A43DA60A5070DD51A6822F00C021A60AF
:1038E8001A6842EA87021A60DA6822F00C0242EA91
:1038F8008102DA6060070DD51A6822F030021A607A
:103908001A6842EA07121A60DA6822F0300242EABC
:103918000112DA6022070DD51A6822F0C0021A6077
:103928001A6842EA87121A60DA6822F0C00242EA8C
:103938008112DA60E6060DD51A6822F440721A6020
:103948001A6842EA07221A60DA6822F4407242EAE8
:103958000122DA60A5060DD51A6822F440621A60C1
:103968001A6842EA87221A60DA6822F4406242EA58
:103978008122DA6060060DD51A6822F440521A6076
:103988001A6842EA07321A60DA6822F4405242EAB8
:103998000132DA6022060DD51A6822F440421A6014
:1039A8001A6842EA87321A60DA6822F4404242EA28
:1039B8008132DA60E6050DD51A6822F440321A60C1
:1039C8001A6842EA07421A60DA6822F4403242EA88
:1039D8000142DA60A5050DD51A6822F440221A6062
:1039E8001A6842EA87421A60DA6822F4402242EAF8
:1039F8008142DA6060050DD51A6822F440121A6017
:103A08001A6842EA07521A60DA6822F4401242EA57
:103A18000152DA6022050DD51A6822F440021A60B4
:103A28001A6842EA87521A60DA6822F4400242EAC7
:103A38008152DA60E6040DD51A6822F040721A60E5
:103A48001A6842EA07621A60DA6822F0407242EAAB
:103A58000162DA60A5040DD51A6822F040621A6086
:103A68001A6842EA87621A60DA6822F0406242EA1B
:103A78008162DA6060040DD51A6822F040521A603B
:103A88001A6842EA07721A60DA6822F0405242EA7B
:103A98000172DA6022040DD51A6822F040421A60D9
:103AA8001A6842EA87771F60DA6822F0404242EAE1
:103AB8008171D960BDE8F08F244A55692C4354615F
:103AC800EDE600224FF0010C4FF003090CFA02F664
:103AD80036EA04002ED15000D3F808A009FA00F500
:103AE800ED430AEA050AC3F808A0D3F808B00EFAAD
:103AF80000FA4AEA0B0AC3F808A0B3F804A02AEAB5
:103B080006069E80B3F804A008FA02F646EA0A06FA
:103B1800B6B29E801E682E401E60D3F800A007FA39
:103B280000F646EA0A061E60DE6801FA00F0354033
:103B38002843D8600132102AC8D1BDE8F08F034A63
:103B4800D5692C43D461AAE6346403080010024006
:103B5800024A95692C439461A1E600BF0010024017
:103B680010B1036882881A85704700BF10B10368D6
:103B780082889A61704700BF18B1838811B10268C2
:103B8800936170471B04FAE70E4B1B8801463BB94B
:103B98000D4B0E4A1B7810680BB981F00101EBE759
:103BA8000B4B5A691AB11A6810B9106058747047EB
:103BB80008480949008891FBF0F101201160587408
:103BC800704700BF9C2D00209E2D0020A02D0020B6
:103BD800A42D0020BC2D002020A1070010B40A4B02
:103BE8000A4A1C7801238340234052F8200029B94F
:103BF800B3FA83F149095DF8044BBDE7191C18BFF6
:103C080001215DF8044BB7E78C2D0020902D002092
:103C180030B102688388128A1A4214BF012000203A
:103C2800704700BF2DE9F0410B4E346873691C40A2
:103C38000FD0DFF828800127B4FA84F3C3F11F03FB
:103C480007FA03F558F8230003689847AC437561F1
:103C5800F2D1BDE8F08100BF00040140483C0020DB
:103C68002DE9F0410B4E346873691C400FD0DFF822
:103C780028800127B4FA84F3C3F11F0307FA03F578
:103C880058F8230003689847AC437561F2D1BDE842
:103C9800F08100BF00040140483C00202DE9F041BC
:103CA8000B4E346873691C400FD0DFF82880012759
:103CB800B4FA84F3C3F11F0307FA03F558F8230095
:103CC80003689847AC437561F2D1BDE8F08100BF45
:103CD80000040140483C00202DE9F0410B4E3468B7
:103CE80073691C400FD0DFF828800127B4FA84F3E9
:103CF800C3F11F0307FA03F558F823000368984730
:103D0800AC437561F2D1BDE8F08100BF0004014009
:103D1800483C00202DE9F0410B4E346873691C4083
:103D28000FD0DFF828800127B4FA84F3C3F11F030A
:103D380007FA03F558F8230003689847AC43756100
:103D4800F2D1BDE8F08100BF00040140483C0020EA
:103D58002DE9F0410B4E346873691C400FD0DFF831
:103D680028800127B4FA84F3C3F11F0307FA03F587
:103D780058F8230003689847AC437561F2D1BDE851
:103D8800F08100BF00040140483C00202DE9F041CB
:103D98000B4E346873691C400FD0DFF82880012768
:103DA800B4FA84F3C3F11F0307FA03F558F82300A4
:103DB80003689847AC437561F2D1BDE8F08100BF54
:103DC80000040140483C00200B490C4A0C4808B547
:103DD8008B6943F001038B61136843F480531360CC
:103DE800002140222FF0A1FC064B4FF0FF321A6051
:103DF800C3F8032008BD00BF0010024000000140C6
:103E0800483C0020883C002003685B6A184700BFD4
:103E180003681B6A184700BF70B44E1C0568C2725D
:103E28008672AC69A44670BC604700BF2DE9F041BA
:103E3800044618460D4616461F462EF0F9FD28443E
:103E4800A0722068E672294645693B4632462046FC
:103E5800AC46BDE8F0416047036810B504461B68EE
:103E68009847236820469B689847E37B0133E373B0
:103E780010BD00BF10B5036804469B689847FF2330
:103E88000122A373627310BD70B5054600780E4613
:103E9800FFF798FA044618B1382301368371C671C2
:103EA80020466978FFF7E2FCAB78204613B1BDE8FD
:103EB80070405BE6BDE8704052E600BF064B984292
:103EC80002D04FF0FF307047044A538B01339BB246
:103ED8005383508B80B27047003800405C2D00201F
:103EE800F8B584894FF6FF764FF47A742BB311B383
:103EF8000F78013101E0B44217D00589013CAD07C4
:103F0800A4B2F8D507734FF47A7402E0BCB2B44295
:103F18000BD00589ED0704F1FF37F7D5057BEDB226
:103F28000AB115700132013BE0E7FFF7C7FF003027
:103F380018BF0120F8BDFF27DFE70120F8BD00BF4B
:103F480030B5437F83B004461BB90120637703B0C3
:103F580030BD0523ADF80430056800BFA868FFF739
:103F6800FFFD6A4601A902236868FFF7B9FFA86840
:103F7800FFF7FCFD00BF9DF8013003F0010383F05B
:103F88000100637703B030BDF8B5074C05460F460E
:103F9800266803E023689B1BBB4204D82846FFF72A
:103FA800CFFF0028F6D0F8BDC42D0020F0B5077F5C
:103FB80083B004464FF0030C0020009016461D46BF
:103FC8008DF804008DF800C06FB30B0E8DF801302A
:103FD8000DF10203080C0A0A997018700621204690
:103FE8005A70FFF7D1FFE0B1236800BF9868FFF768
:103FF800B7FD237F2268002B14BF052304236946DD
:1040080050680022FFF76CFF236832460021586889
:104018002B46FFF765FF23689868FFF7A7FD00BFE9
:10402800284603B0F0BD0DF10103D3E7F8B50378D6
:10403800012B49D0022B4DD1836801F07F0113B1C8
:104048001C689B88238504464068154640F2E9337E
:10405800828902E0002B00F0A0800289013B12F067
:10406800020F9BB2F6D0017340F2E93302E0002B55
:1040780000F093800289013B12F0010F9BB2F6D049
:10408800037B606840F2E933828902E0002B00F08C
:1040980081800189013B11F0020F9BB2F6D00573B4
:1040A80040F2E93301E0002B74D00289013B12F0A1
:1040B800010F9BB2F7D0037BA368002B68D01A6866
:1040C8009B8893610120F8BD90F904305C1C01D0F5
:1040D800022B01DD0020F8BD434C03EB830304EB06
:1040E80083035B68002B6DD04579404E6D004FF41B
:1040F8002040EDB270629C69270400F1FF303DD486
:104108005C683B4F45F080703C4040F49030204361
:104118004FF420445860746201E0671C54D09869D9
:1041280010F0020004F1FF34F7D04FF420409962F8
:104138007062014601E04F1C19D0986910F08000A8
:1041480001F1FF31F7D05968294845F00075014061
:1041580045F480350D434FF420415D6071629869E4
:1041680010F0020001F1FF311AD14C1CF7D1214A9D
:104178007162138801339BB21380F8BD441CBAD115
:104188001C4A7062138801339BB213800020F8BD6B
:104198000120F8BDFFF792FE8EE7FFF78FFE70E76C
:1041A8004FF420419A6271620A4602E012F1FF322E
:1041B80011D3996911F02001F8D020217262D961D8
:1041C8000120F8BD1846F8BD0A4A74621388013305
:1041D8009BB21380F8BD074C7262238801339BB2EF
:1041E80008462380F8BD00BF54580020B80E0020B0
:1041F800009800FC240F00202DE9F04F87B090F8BC
:1042080061300290002B40F0F380029B724C734E99
:10421800DFF8D481724DDFF8D491724F103318460D
:1042280080226B210393FFF701FF64230193FEF7BC
:1042380065FA4FF0010A4FF0100E4FF47A7CD8F867
:104248000430C3F30803002B40F0A580EFF311837B
:10425800002B40F0A0802368A96822689342FAD115
:104268003A689142F7D832680CFB02FBABEB0101CC
:10427800B1FBF2F10CFB03131B1AB3F57A7FDED303
:10428800019B013B0193D2D1DDF80C90564F544D60
:10429800DFF8588103226B214846FFF7C7FE029BCF
:1042A800484693F86020DFF83C911921FFF7BEFEDD
:1042B8000F230193FEF722FA4FF0010A4FF0100E78
:1042C8004FF47A7C7B68C3F30803002B45D1EFF3E6
:1042D8001183002B41D12368A96822689342FAD13F
:1042E800D9F800209142F6D832680CFB02FBABEB00
:1042F8000101B1FBF2F10CFB03131B1AB3F57A7F32
:10430800E0D3019B013B0193D4D1029A92F85B3030
:10431800032B5ED892F85E20A2F10102B2FA82F273
:104328005209039C1A212046FFF780FE18221B2100
:104338002046FFF77BFE18221C212046FFF776FE59
:10434800022237212046FFF771FE2046012238213C
:10435800FFF76CFE07B0BDE8F08FEFF311818EF325
:104368001288D5F808B02B68DB0344BFC8F800A052
:10437800D5F808B02368D8F80020C9B281F31188AD
:10438800316813440CFB01F2A2EB0B02B2FBF1F211
:104398000CFB0323B1E7EFF311818EF31288D5F8F4
:1043A80008B02B68DA0344BFC9F800A0D5F808B0F4
:1043B8002368D9F80020C9B281F311883168134401
:1043C8000CFB01F2A2EB0B02B2FBF1F20CFB032394
:1043D80052E7019AA5E700BFC42D0020C82D002090
:1043E80010E000E0CC2D002000ED00E0C02D002002
:1043F8001D09013D052D03F00F0300F26981A94A4B
:1044080032F8150040FA03F2D40740F161814FF009
:10441800010909FA03F3013B18402EF015FEA24BDF
:10442800A24A5B5D184412EBC00500F0518152F8B6
:104438003030AA88198A12EA01007FF4E6AEB2FA8F
:1044480082F1029CE871C1F11F0199482026AE71E2
:10445800E060481C3FF4D9AE03F13840800A954F1C
:10446800954E3F5CDFF85CC2765C07F01F087F0959
:1044780004F10C0E022F09FA08F44CF821E000F0C0
:104488003B81032F00F031814F4500F02681D7078B
:1044980009D51C6824F003041C601C681C60DC68D7
:1044A80024F00304DC60940709D51C6824F00C048C
:1044B8001C601C681C60DC6824F00C04DC60570776
:1044C80009D51C6824F030041C601C681C60DC687A
:1044D80024F03004DC60140709D51C6824F0C004FB
:1044E8001C601C681C60DC6824F0C004DC60D70613
:1044F80009D51C6824F440741C601C681C60DC68C6
:1045080024F44074DC60940609D51C6824F44064E3
:104518001C601C681C60DC6824F44064DC6057067E
:1045280009D51C6824F440541C601C681C60DC68B5
:1045380024F44054DC60140609D51C6824F4404473
:104548001C601C681C60DC6824F44044DC60D705EF
:1045580009D51C6824F440341C601C681C60DC68A5
:1045680024F44034DC60940509D51C6824F4402404
:104578001C601C681C60DC6824F44024DC6057055F
:1045880009D51C6824F440141C601C681C60DC6895
:1045980024F44014DC60140509D51C6824F4400494
:1045A8001C601C681C60DC6824F44004DC60D704D0
:1045B80009D51C6824F040741C601C681C60DC6809
:1045C80024F04074DC60940409D51C6824F040642D
:1045D8001C601C681C60DC6824F04064DC605704C4
:1045E80009D51C6824F040541C601C681C60DC68F9
:1045F80024F04054DC60140409D51A6822F04042C3
:104608001A601A681A60DA6822F04042DA60CAB2A0
:1046180002F0FC0303F1804303F5803302F0030248
:1046280094004FF00F0E9A68DFF89CC0234F0EFAE3
:1046380004FE22EA0E029A60C2B29868DFF88CE0A3
:10464800A2400124024304FA01F09A60CCF8000069
:104658003B68C24313403B60DEF800301340CEF89D
:1046680000303B6803433B605CF80C3C144F13403C
:104678004CF80C3CDEF808301A40CEF808205CF8FC
:104688000C3C03434CF80C3CBB5DF02B3CD8481C5D
:104698003FF4BBAD012303FA01F1084A136819433B
:1046A8001160B2E56864030874640308C030002030
:1046B800E5090008346403081C6703080004014086
:1046C800883C0020483C00201404014004040140B8
:1046D800029A194BD3600121DFE7DFF860C0DCF8EC
:1046E80014703C43CCF81440D1E6144FD7F81CC0E2
:1046F80044EA0C04FC61CAE6DFF840C0DCF8187034
:104708003C43CCF81840C2E60D4B8DF817409B5D32
:104718008DF81430F0230322BB5505A800238DF82B
:1047280015208DF8163015F023FFA988B1FA81F10C
:10473800C1F11F01ABE700BFE50900080010024006
:104748003867030810B500F10C0401220B2120463C
:10475800FFF76CFC20B11D2209212046FFF766FCFB
:1047680000F0010010BD38B500F10C0504467022B8
:1047780000212846FFF75AFC202201212846FFF78E
:1047880055FC002202212846FFF750FC6420FEF762
:10479800D3F8607EC8B1FEF715FE0546FFF738FA74
:1047A80098B11DB12223AB710023EB712146084B50
:1047B80041F8083FF0220023284615F00FFF28464D
:1047C80013F0D2F8284613F0CFF8012038BD00BF07
:1047D8000B0A0008F0B500F10C0585B004460F4639
:1047E8000DF107020221284612F0E0FF18B9002651
:1047F800304605B0F0BD9DF80730DB07F7D502AAB3
:104808000321284613F038F80DF10702092128463C
:1048180012F0CCFF06460028E9D011220A212846CA
:10482800FFF704FC9DF8073013F00C0FDFD1B4F943
:104838001A1002A8FCF7E6F840423880B4F91C10B8
:104848000DF10A00FCF7DEF840427880B4F91E103A
:1048580003A8FCF7D7F84042B880C9E73122F42111
:10486800FFF7E4BB044B93F820209201343202F0A6
:10487800FC02F421FFF7DABBE46C00202E22F421BD
:10488800FFF7D4BB01224821FFF7D0BB01225821F2
:10489800FFF7CCBB427A4AB110B5044604F10A01CD
:1048A800D0E9003098470023637210BD704700BFFD
:1048B800A8B10D4B012210B402FA01F103F17504FD
:1048C80002E00333A3420BD013F8012C8242F8D143
:1048D8001A780A42F5D001205DF8044B70477047FA
:1048E80000205DF8044B70473D38030830B40A4D8A
:1048F800002305F1640401E0272B0AD003EB4302EF
:104908000133A15C8142F7D12A4430BC92F8660099
:104918007047002030BC7047D8370308024B014667
:104928001868FBF703BD00BF1C11002038B5064D01
:10493800441E14F8011F286811B9BDE83840A9E7DA
:10494800FBF7F4FCF5E700BF1C11002010B5044686
:104958000B48FFF7EBFF0B4B1868FFF79BFF0A4B61
:10496800186807F045FC23F0D7F9084B084A24B12A
:10497800084909480860DA6010BDDA60FCE700BF42
:10498800E87503081C1100202011002000ED00E04C
:104998000400FA05FC9F0020EFBEADDE38B5094DD6
:1049A8002868FFF777FF084B00241C70074B1C6032
:1049B800074B1C7023F03EFB2046FFF7C7FF2C6017
:1049C80038BD00BF1C110020281100202411002030
:1049D800711B00200120B9E70048A7E7587B0308AE
:1049E80038B5064D002455F834000134FFF79EFF12
:1049F800FFF7F2FF292CF6D138BD00BFD0520308CB
:104A080008B5FFF793FFBDE80840E5E7024A1368D9
:104A180023EA000010607047C0380020584B1B681C
:104A2800B3F5FA7F10B500F29780564B5A899989E9
:104A3800914224BF00225A81198ADA89914228BFFB
:104A48000022998B28BFDA81DA8B914284BF002239
:104A58009A839A784C49012A91F8581031D00A293A
:104A680034D00C2975D19FED497A494CA278062A91
:104A780097BF4849DFED486A01EB8201D1ED376AFB
:104A8800217961B3013A032A6BD9444B44499A7896
:104A9800022A04BF00229A704B78052B45D803EBF5
:104AA8004300404A03EB800302EB43030A783E4885
:104AB800022A036041D900230B703C4B3C4A1A6020
:104AC80010BD3C485A700A29027040D19FED3A7ACD
:104AD800012ACAD10A2950D19FED387AC5E75B78F7
:104AE800344907EE903A0A78F8EEE77A67EE877A63
:104AF80007EE102AB8EEC77A27EE277AF4EEC76ACF
:104B0800F1EE10FAC1DD86EEA77AFDEEC77A17EE50
:104B1800903A102BA8BF1023012BB8BF0123DBB29A
:104B28009A4238BF1A460A70AFE700224A700A78DC
:104B38001D481C4B0360022ABDD81D4BC2EB021155
:104B4800C2EB810203EB4202184B1A6010BD0C291C
:104B580013D09FED1B7ABBE74FF00050FFF756FFCD
:104B680063E7B7EE000A80EE260A2EF05FFD238881
:104B7800984228BF1846208087E79FED127A74E78D
:104B880020320020F8310020303200200AD7A33923
:104B9800503B0020D83703086F12033868170020ED
:104BA800E4140020B01600208C1E00200015002000
:104BB80010150020746A00205304E9380F506E3A2B
:104BC8006F1203396F12833AF8B5BE490B78A3F117
:104BD8001702022A0FD9BC4A12F83300002840F005
:104BE8005981D800024452782AB1B84A12F83330B1
:104BF800002B00F0D4810024B54EB64F2546315B1A
:104C08004B0803F077334FEA910C0CF0333CCB1A86
:104C1800CA08A3EB0C0302F011329B1A03EB23130F
:104C280003F00F33A7FB03C2D209C2EB02229A1A80
:104C380011F001031CBF0135EDB2012A06EB040097
:104C480004F108040BDD022A40F0208113B111F4AD
:104C58002F7F04D110F0B6F9002800F01781282C16
:104C6800CDD1013D022D00F211819B4E8020FFF72E
:104C7800CDFE0027334606F5B17C4FF0640E9A88C6
:104C8800D9889142B3F86210B3F8642028BF9F8096
:104C9800914293F8732088BFA3F86270013A632A9F
:104CA80093F8742088BF83F873E00132D2B2092ADE
:104CB80088BF83F8747003F16D00194600228C7A5E
:104CC80010F8015F0132A54228BF0770032A01F1DD
:104CD8000601F4D176339C45D1D180498B78042BD9
:104CE80000F0E18033B90B88B3F5F07F84BF4FF44F
:104CF800F0730B807A4CFFF791FE2368794A1A40CB
:104D0800002A00F02581DA0700F125815F0400F10F
:104D18001A811D0700F1FB80980400F1F380190443
:104D2800714A14D50023D37382F82330137EC3B19C
:104D3800537E032B00F01481012B21D0022B26D0A7
:104D480000233383A6F88E30A6F8043118E1D17B0E
:104D5800002900F01B81002382F82330137E002BEA
:104D6800E6D1B3817382A6F88230A6F88830A6F817
:104D7800F830A6F8FE303383A6F88E30A6F8043152
:104D8800002386F84F3086F8C53086F83B31574BFC
:104D9800DA79022A08BF01224FF0070008BFDA714A
:104DA80024F016FE002840F0B7804FF4806007F02A
:104DB80081FB002800F0BA804D4E344604F17D0591
:104DC8007836617979B1207858B14A4B02E00633D8
:104DD8009D4208D013F8052C8A42F8D11A78002A87
:104DE800F5D024F09FFD0634A642EAD14FF40050D6
:104DF800FFF70CFE4FF48040FFF708FE4FF4003039
:104E0800FFF704FE4FF40010FFF700FE3A4C4FF096
:104E18000070FFF7FBFD4FF08060FFF7F7FDA388F8
:104E2800002B40F08880354A136813F07F4F1CBF71
:104E380000231360936823F4007323F002030BB17B
:104E4800002393601379013B042B84BF0123137162
:104E58002B4BB3F86E2002F00F01022903D8C2F3DE
:104E68000312012A03D94FF42062A3F86E20B3F885
:104E7800702002F00F01022903D8C2F30312012A9D
:104E880003D940F60122A3F87020F8BD104805F0B8
:104E98009FF9EAE6D80014186468002C7FF4A2AEE3
:104EA80017240C709EE64FF48050FFF7AFFDCB8AB5
:104EB800B3F57A7F37BF4FF47A728B788B78CA82D2
:104EC80010E700BF686C002014660308C870030868
:104ED800BC3B00208180808010150020503B0020C2
:104EE800C038002009600002181F00200059002067
:104EF800406E0020456E00203C58002008610020CC
:104F0800881300202748FFF781FD236807E7264814
:104F1800FFF77CFD2368FFE6072024F003FD4FF42C
:104F2800806007F0C7FA00287FF446AF4FF00060B2
:104F3800FFF76CFD40E72078FDF730F900287FF493
:104F480072AFA0806FE71948FFF760FD2368E0E6BD
:104F580043F0010323601648FFF758FD2368D5E6A0
:104F68000023B3817382A6F88230A6F88830A6F8A9
:104F7800F830A6F8FE303383A6F88E30A6F8043150
:104F8800537E023B022B3FF6FBAE00E742F20101E3
:104F98000B423FF4CBAE002382F82330DEE6182321
:104FA8000B7028E609400002016000020920000297
:104FB800086000022DE9F84F2DF0E6F82B4B2C4A3B
:104FC800934250D22B4F03F114069B464FF0010831
:104FD800294C258862197DB1BA420DD2052D0BD90D
:104FE80036F8143C6188C3F30B0399420AD014467F
:104FF80025886219002DEFD156F8101C5846FCF789
:105008003DF80FE0637913F0030AF0D156F8101C4D
:1050180094F804905846FCF731F836F8141CB9EBAC
:10502800113F11D04FF00008114B0BF1140B9B45A9
:1050380006F11406CCD3FFF7C7FDFCF7EBF92DF00A
:1050480039F84046BDE8F88F36F8123C56F8100C8F
:10505800AA1FC3F30B039A4204F10601A8BF1A461C
:105068002EF03FFBE0E74FF00108E4E7B4BA03088D
:1050780064BF03080000040802F0030808B508F03C
:10508800A7FAFFF797FF0120BDE8084007F04CBBDF
:105098002DE9F341056906460F467DBBD0F800802F
:1050A800C8F30A0323B30023D6F80080019313F052
:1050B80031FB042819D1224C236943F001032361F1
:1050C800BBB2A8F8003013F025FB04282ED108F154
:1050D80002030193019B3F0C1F8013F01BFB236904
:1050E800042823F00103236125D06FF0010505E0B2
:1050F80013F010FB042805D04FF0FF35284602B006
:10510800BDE8F0810E4C236943F002032361C4F823
:105118001480236943F04003236113F0FBFA2369E9
:10512800042823F002032361BDD0E5E7236923F0B7
:1051380001032361D9E7336804333360DEE700BF36
:1051480000200240F8B504460D468E180027B542E7
:1051580001D12069F8BDE368591CE160234415F8C2
:10516800012B1A720429F2D1A1682046FFF790FF9B
:10517800C4E90370EBE700BF30B402681146531C62
:10518800036011F8024B0160D31C517803609378D7
:10519800151D05601B0443EA0123D078234343EA25
:1051A800006030BC704700BF0368591C1A46016094
:1051B80012F8021B0260587841EA0020704700BFCD
:1051C80003685A1C02601878704700BF38B5044657
:1051D800006815462EF085FA22682A44226038BDF8
:1051E800036810B40A0A5C1C04601A7003685A1C2D
:1051F800026019705DF8044B704700BF03685A1CC1
:10520800026010B4197003680A0A5C1C04601A7002
:1052180003680A0C5C1C04601A700368090E5A1CA7
:10522800026019705DF8044B704700BF03685A1C90
:10523800026019700368090A5A1C026019707047E5
:1052480010EE103AC3F3160242F07E5207EE102A0F
:10525800DFED167ADFED164A9FED165ADFED165A86
:105268009FED166ADFED163ADFED166A9FED164AD6
:10527800E7EE274ADB1507EE903AA4EE875AF8EED8
:10528800E77AE5EE075A67EEA37AA5EE876AB5EEE8
:10529800C00AE6EE077AF1EE10FAD4BFB0EE440A7F
:1052A800B0EE660A37EE800A704700BFDACDFE3CE2
:1052B800B9D593BE5CB8903FAA841DC022E0614076
:1052C8001872313F07F1B3C2000080FFDFED1D3ACD
:1052D800DFED1D7A9FED1D7A9FED1D4ADFED1D4A1A
:1052E8009FED1D5ADFED1D5A9FED1D6ADFED1D6A0A
:1052F800E0EE237AF4EEC77AF1EE10FA88BFF0EE0A
:10530800477AF4EEC47AF1EE10FAB8BFF0EE447AB8
:10531800FDEEE77A17EE903AC3F3160242F07E529A
:1053280007EE102AA7EE245A03F0FF4300EE103AC6
:10533800E5EE075AA5EE876AE6EE076A26EE800ACA
:10534800704700BF3BAA384B00007E4E0000FF4E5E
:1053580000000000ED185E3C81900FBBAF9D2A3E17
:10536800B2D19F3EE886023F07EE901AF8EE677AC0
:105378009FED837A27EE800A20EE070AFDEEC07AB9
:1053880017EE903A2033402B00F28180DFED7D7AD2
:10539800B4EEE70AF1EE10FA40F3E680B0EE407A98
:1053A8009FED796ADFED796A01E0B0EE677AB4EED5
:1053B800E67AF1EE10FA77EE467AF6DC9FED747A2B
:1053C800F4EEC77AF1EE10FA40F1D1809FED6E6AE3
:1053D800DFED706A01E0F0EE477AF4EEE67AF1EE7E
:1053E80010FA37EE867AF6D4DFED6B7AB4EEE77A08
:1053F800F1EE10FA40F3A780DFED627A37EEC77A54
:1054080027EE076ADFED655ADFED657ADFED656A3D
:105418009FED655AE6EE257A67EE065AE6EE276AAC
:10542800F7EE007AA5EEA67AF0EE675AE7EE055A8F
:10543800E7EE457A87EEA55ADFED577A30EE277A00
:10544800FDEEC76A16EE903A2033402B24D99FED23
:10545800577AF6EE006AB7EE006AF7EE004AC4EE35
:10546800A57A0023836143610362C36180ED045A16
:1054780067EEA66A27EE866A27EE877AC0ED006A8D
:10548800C0ED026A80ED016A80ED037A7047B7EEDD
:10549800005AF0EE455ACFE7B4EEE70AF1EE10FAFB
:1054A8006BDD9FED396ADFED396A01E0B0EE677AAE
:1054B800B4EEE67AF1EE10FA77EE467AF6DC9FED76
:1054C800347AF4EEC77AF1EE10FA53D59FED2E6ACE
:1054D800DFED306A01E0F0EE477AF4EEE67AF1EEBD
:1054E80010FA37EE867AF6D4DFED2B7AB4EEE77A47
:1054F800F1EE10FA33DCDFED2E7AB4EEE77AF1EE56
:1055080010FA44BFDFED227A37EEC77A27EE076A32
:10551800DFED224ADFED226ADFED227AE6EE246A29
:1055280067EE064AE6EE267AB7EE006AA4EEA77A98
:10553800F6EE006A36EE476AF8EE007A27EE277A2A
:1055480066EE266A89E7DFED1A7AB4EEE77AF1EEBD
:1055580010FA44BFDFED0E7A37EEC77A50E7DFED79
:10556800097A37EEC77AD1E7F0EE407A26E7B0EE4F
:10557800677A39E7B0EE677AB6E7F0EE477A9EE7E2
:1055880027D4D236DB0F4940DB0FC940E4CB1641A4
:10559800DB0F49C0E4CB16C1DB0FC93F92E741B925
:1055A8009730083C15A82ABEF304353F00000000D8
:1055B800DB0FC9BFDFED2B7AB4EEE70AF1EE10FA84
:1055C8004ADDDFED296A9FED297A01E0B0EE670A2E
:1055D800B4EEC70AF1EE10FA70EE667AF6DC9FEDCB
:1055E800247AF4EEC77AF1EE10FA38D5DFED1E6AA8
:1055F8009FED207A01E0F0EE407AF4EEC77AF1EE02
:1056080010FA37EEA60AF6D4DFED1B7AB4EEE70AF5
:10561800F1EE10FA14DDDFED137A37EEC00A60EE12
:10562800006A9FED166A9FED167ADFED167AA6EEF0
:10563800867A20EE266AE6EE877AA6EE270A704773
:10564800DFED117AB4EEE70AF1EE10FA44BFDFEDB0
:10565800087A37EEC00AE2E7F0EE407ABFE7B0EE2C
:10566800670AD1E7DB0F4940DB0FC940E4CB16419D
:10567800DB0F49C0E4CB16C1DB0FC93F92E741B944
:105688009730083C15A82ABEDB0FC9BF02B370B417
:105698008E1803E0121B14D1B14215D010F8012B5B
:1056A800A2F14103192B11F8013BA3F1410598BF61
:1056B8002032192D03F12004ECD9D21A01D1002B84
:1056C800EAD1104670BC70470022104670BC704783
:1056D8001046704770B5044608460D462DF0A8F9E7
:1056E800064602E014F8013F43B1324629462046F7
:1056F800FFF7CCFF0028F5D1204670BD1C46204698
:1057080070BD00BF4FF0FF32FFF7C0BFA0F16103CB
:10571800192B98BF20387047A0F14103192B98BF67
:1057280020307047202805D0093804288CBF002075
:10573800012070470120704770B5044608460E46A0
:105748002DF076F93146054602462046FFF79EFFC2
:1057580068B9635D1846FFF7E5FF00B933B901354D
:105768002C44204601340378202BFAD070BD002049
:10577800FCE700BF613819288CBF00200120704762
:10578800413819288CBF002001207047303809287B
:105798008CBF002001207047A0F13003092B07D9E6
:1057A80020F02000413819288CBF002001207047C4
:1057B80001207047F8B5064615460846B6FBF2F4D0
:1057C80034B905FB14640C4B1B5D00F8013BF8BDB4
:1057D800B4FBF2F75FB905FB1747074B05FB1464E9
:1057E800DA5D00F8012B1B5D00F8013BF8BD384677
:1057F800FFF7E0FFEFE700BFA07F0308B5EEC00AA0
:10580800DFED677A674AF1EE10FACCBF30EE270A6F
:1058180030EE670ADFED647A20EE270A2DE9F047BB
:10582800FDEEC07A88B017EE904A84EAE476002349
:10583800A6EBE476CDE902330493A2FB06325FEAD5
:10584800D208054641D105AF58483946554BA3FB08
:105858000623DB0803EB8303A6EB4303002CC35C9E
:105868000B704FF00002ACBF20232D234A7038463E
:105878008DF808302DF0DCF80128394639D0022897
:1058880042D0032805BF302302A802A88DF80930AA
:105898002DF053FF02A82DF0CBF80338C4B22246EE
:1058A80002A928462DF07FFF00232B5528462DF00E
:1058B800BFF82E22431C02A92A542144E8182DF0CF
:1058C80058FF284608B0BDE8F087394BA3FB0623EC
:1058D8005B0922D105AF35483946324AA2FB083266
:1058E800D20802EB8202A8EB4202835C01F8013B7A
:1058F800ACE7302302A88DF809308DF80A308DF80E
:105908000B302DF01AFFC5E7302302A88DF80930B7
:105918008DF80A302DF011FFBCE7264AA2FB0612CB
:105928005FEA92190ED105AF204839461D4AA2FBFD
:1059380003C2D20802EB8202A3EB4203C35C01F864
:10594800013BCAE71C4AA2FB06125FEA523A0ED193
:1059580005AF16483946134AA2FB09C2D20802EB22
:105968008202A9EB4202825C01F8012BDEE71348B0
:10597800B6FBF0F058B905AF39460A20BAFBF0F289
:1059880000FB12A20948825C01F8012BE3E705AF8E
:1059980039460A220193FFF70DFF019B0146ECE708
:1059A8006F12033ACDCCCCCC00007A44A07F030818
:1059B8001F85EB51D34D62105917B7D1A08601004E
:1059C80070B406688E4217D90139751E002311F884
:1059D800014F0822634013F0800F4FEA430318BFBA
:1059E80083F0D503013ADBB2F5D18D42EFD1721CB9
:1059F8000260337070BC7047721C00230260337001
:105A080070BC70470A44914215D010B40139541E35
:105A180011F8012F0823504010F0800F4FEA400082
:105A280018BF80F0D500013BC0B2F5D1A142EFD13B
:105A38005DF8044B704770474840082310F0800F0A
:105A48004FEA400018BF80F0D500013BC0B2F5D145
:105A5800704700BF0A44914215D030B40139551E31
:105A680041F2210211F8014F082380EA04200404BE
:105A78004CBF82EA40004000013B80B2F7D18D4222
:105A8800F0D130BC7047704770B502221349144CEE
:105A9800144E4FF6FF70FFF7DDFF22884AB1A518B4
:105AA800B54218D2052A16D92146FFF7D3FF2C464E
:105AB800F3E721460222FFF7CDFF0222A118FFF7E4
:105AC800C9FF094BE41A094B1C8541F60F53C31A49
